{
  "contractName": "SimpleToken",
  "abi": [
    {
      "inputs": [],
      "payable": false,
      "stateMutability": "nonpayable",
      "type": "constructor"
    },
    {
      "constant": false,
      "inputs": [
        {
          "name": "target",
          "type": "address"
        },
        {
          "name": "name",
          "type": "string"
        }
      ],
      "name": "SetName",
      "outputs": [],
      "payable": false,
      "stateMutability": "nonpayable",
      "type": "function"
    },
    {
      "constant": false,
      "inputs": [
        {
          "name": "target",
          "type": "address"
        },
        {
          "name": "grade",
          "type": "uint256"
        }
      ],
      "name": "SetGrade",
      "outputs": [],
      "payable": false,
      "stateMutability": "nonpayable",
      "type": "function"
    },
    {
      "constant": true,
      "inputs": [
        {
          "name": "target",
          "type": "address"
        }
      ],
      "name": "GetGrade",
      "outputs": [
        {
          "name": "",
          "type": "uint256"
        }
      ],
      "payable": false,
      "stateMutability": "view",
      "type": "function"
    },
    {
      "constant": true,
      "inputs": [
        {
          "name": "_owner",
          "type": "address"
        }
      ],
      "name": "IsPass",
      "outputs": [
        {
          "name": "",
          "type": "string"
        }
      ],
      "payable": false,
      "stateMutability": "view",
      "type": "function"
    },
    {
      "constant": false,
      "inputs": [
        {
          "name": "str1",
          "type": "string"
        },
        {
          "name": "str2",
          "type": "string"
        }
      ],
      "name": "concat",
      "outputs": [
        {
          "name": "",
          "type": "string"
        }
      ],
      "payable": false,
      "stateMutability": "nonpayable",
      "type": "function"
    }
  ],
  "bytecode": "0x6080604052606460005534801561001557600080fd5b50600054600260003373ffffffffffffffffffffffffffffffffffffffff1673ffffffffffffffffffffffffffffffffffffffff168152602001908152602001600020819055506040805190810160405280600981526020017fe78e8be5b08fe6988e0000000000000000000000000000000000000000000000815250600160003373ffffffffffffffffffffffffffffffffffffffff1673ffffffffffffffffffffffffffffffffffffffff16815260200190815260200160002090805190602001906100e49291906100ea565b5061018f565b828054600181600116156101000203166002900490600052602060002090601f016020900481019282601f1061012b57805160ff1916838001178555610159565b82800160010185558215610159579182015b8281111561015857825182559160200191906001019061013d565b5b509050610166919061016a565b5090565b61018c91905b80821115610188576000816000905550600101610170565b5090565b90565b61097d8061019e6000396000f30060806040526004361061006d576000357c0100000000000000000000000000000000000000000000000000000000900463ffffffff1680635b55a5781461007257806389c19ddb146100fb578063ac6504e414610223578063cab1cda9146102df578063f02f73491461032c575b600080fd5b34801561007e57600080fd5b506100f9600480360381019080803573ffffffffffffffffffffffffffffffffffffffff169060200190929190803590602001908201803590602001908080601f0160208091040260200160405190810160405280939291908181526020018383808284378201915050505050509192919290505050610383565b005b34801561010757600080fd5b506101a8600480360381019080803590602001908201803590602001908080601f0160208091040260200160405190810160405280939291908181526020018383808284378201915050505050509192919290803590602001908201803590602001908080601f01602080910402602001604051908101604052809392919081815260200183838082843782019150505050505091929192905050506103db565b6040518080602001828103825283818151815260200191508051906020019080838360005b838110156101e85780820151818401526020810190506101cd565b50505050905090810190601f1680156102155780820380516001836020036101000a031916815260200191505b509250505060405180910390f35b34801561022f57600080fd5b50610264600480360381019080803573ffffffffffffffffffffffffffffffffffffffff1690602001909291905050506105b5565b6040518080602001828103825283818151815260200191508051906020019080838360005b838110156102a4578082015181840152602081019050610289565b50505050905090810190601f1680156102d15780820380516001836020036101000a031916815260200191505b509250505060405180910390f35b3480156102eb57600080fd5b5061032a600480360381019080803573ffffffffffffffffffffffffffffffffffffffff16906020019092919080359060200190929190505050610803565b005b34801561033857600080fd5b5061036d600480360381019080803573ffffffffffffffffffffffffffffffffffffffff169060200190929190505050610863565b6040518082815260200191505060405180910390f35b80600160008473ffffffffffffffffffffffffffffffffffffffff1673ffffffffffffffffffffffffffffffffffffffff16815260200190815260200160002090805190602001906103d69291906108ac565b505050565b60608060606000806060806000808a975089965087519550865194508486016040519080825280601f01601f19166020018201604052801561042c5781602001602082028038833980820191505090505b50935083925060009150600090505b858110156104ed57878181518110151561045157fe5b9060200101517f010000000000000000000000000000000000000000000000000000000000000090047f01000000000000000000000000000000000000000000000000000000000000000283838060010194508151811015156104b057fe5b9060200101907effffffffffffffffffffffffffffffffffffffffffffffffffffffffffffff1916908160001a905350808060010191505061043b565b600090505b848110156105a457868181518110151561050857fe5b9060200101517f010000000000000000000000000000000000000000000000000000000000000090047f010000000000000000000000000000000000000000000000000000000000000002838380600101945081518110151561056757fe5b9060200101907effffffffffffffffffffffffffffffffffffffffffffffffffffffffffffff1916908160001a90535080806001019150506104f2565b829850505050505050505092915050565b60606000600160008473ffffffffffffffffffffffffffffffffffffffff1673ffffffffffffffffffffffffffffffffffffffff1681526020019081526020016000209050603c600260008573ffffffffffffffffffffffffffffffffffffffff1673ffffffffffffffffffffffffffffffffffffffff168152602001908152602001600020541015156107225761071b818054600181600116156101000203166002900480601f0160208091040260200160405190810160405280929190818152602001828054600181600116156101000203166002900480156106db5780601f106106b0576101008083540402835291602001916106db565b820191906000526020600020905b8154815290600101906020018083116106be57829003601f168201915b50505050506040805190810160405280600781526020017f20e58f8ae6a0bc000000000000000000000000000000000000000000000000008152506103db565b91506107fd565b6107fa818054600181600116156101000203166002900480601f0160208091040260200160405190810160405280929190818152602001828054600181600116156101000203166002900480156107ba5780601f1061078f576101008083540402835291602001916107ba565b820191906000526020600020905b81548152906001019060200180831161079d57829003601f168201915b50505050506040805190810160405280600a81526020017f20e4b88de58f8ae6a0bc000000000000000000000000000000000000000000008152506103db565b91505b50919050565b60648111158015610815575060008110155b1561085f5780600260008473ffffffffffffffffffffffffffffffffffffffff1673ffffffffffffffffffffffffffffffffffffffff168152602001908152602001600020819055505b5050565b6000600260008373ffffffffffffffffffffffffffffffffffffffff1673ffffffffffffffffffffffffffffffffffffffff168152602001908152602001600020549050919050565b828054600181600116156101000203166002900490600052602060002090601f016020900481019282601f106108ed57805160ff191683800117855561091b565b8280016001018555821561091b579182015b8281111561091a5782518255916020019190600101906108ff565b5b509050610928919061092c565b5090565b61094e91905b8082111561094a576000816000905550600101610932565b5090565b905600a165627a7a72305820f83b064e854dee92419aab26dae93d95942fca41b9efc0140cda839f312b7aa00029",
  "source": "pragma solidity ^0.4.11;\n\ncontract SimpleToken \n\t{\n  uint256 INITIAL_SUPPLY = 100;\n\n  mapping(address =>string) names;\n  mapping(address =>uint256) grades;\n  \n  function SimpleToken() public \n  {\n    grades[msg.sender] = INITIAL_SUPPLY;\n\tnames[msg.sender]=\"王小明\";\n  }\n  function SetName(address target,string name) public\n  {\n\t  names[target]=name;\n  }\n  function SetGrade(address target,uint256 grade) public\n  {\n\t  if(grade<=100 && grade>=0)\n\t\tgrades[target]=grade;\n  }\n  // transfer token for a specified address\n  \n  function GetGrade(address target) public constant returns (uint256)\n  {\n\t  return grades[target];\n  }\n  function IsPass(address _owner) public constant returns (string)\n  {\n\tstring off = names[_owner];\n\tif(grades[_owner]>=60)\n\t\treturn concat(off,\" 及格\");\n\telse\n\t\treturn concat(off,\" 不及格\");\n  }\n  function concat(string str1, string str2) returns (string)\n  {\n\n        bytes memory bs1 = bytes(str1);\n        bytes memory bs2 = bytes(str2);\n\n        uint len1 = bs1.length;\n        uint len2 = bs2.length;\n\n        string memory temp = new string(len1 + len2);\n        bytes memory result = bytes(temp);\n\n        uint index = 0;\n        for (uint i = 0; i < len1; i++) {\n            result[index++] = bs1[i];\n\n        }\n        for (i = 0; i < len2; i++) {\n            result[index++] = bs2[i];\n\n        }\n        return string(result);\n    }\n}",
  "sourcePath": "C:\\Users\\Arthur\\Desktop\\hello\\contracts\\SimpleToken.sol",
  "compiler": {
    "name": "solc",
    "version": "0.4.24+commit.e67f0147.Emscripten.clang"
  },
  "schemaVersion": "2.0.1",
  "updatedAt": "2018-12-14T07:49:44.160Z"
}